:100000000C9458000C9480000C9480000C94800098
:100010000C9480000C9480000C9480000C94800060
:100020000C9480000C9480000C9480000C94800050
:100030000C9480000C9480000C9480000C94800040
:100040000C94480B0C9480000C9480070C945A0775
:100050000C9480000C9480000C9480000C94800020
:100060000C94B2070C9480000000000025002800CA
:100070002B00040404040404040402020202020229
:10008000030303030303010204081020408001025C
:1000900004081020010204081020000000080002DB
:1000A0000100000304070000000000000000350EFE
:1000B00011241FBECFEFD8E0DEBFCDBF23E0A4E107
:1000C000B2E001C01D92A73CB207E1F712E0A0E048
:1000D000B1E0E6E6F2E202C005900D92A431B1076C
:1000E000D9F710E0C8E5D0E004C02197FE010E94D6
:1000F0002F0FC735D107C9F70E94920B0C9431110D
:100100000C940000CF92DF92EF92FF920F931F9317
:10011000CF93DF936C017A018B01C0E0D0E0CE1564
:10012000DF0581F0D8016D918D01D601ED91FC9133
:100130000190F081E02DC6010995892B11F02196DF
:10014000EECF7E01C701DF91CF911F910F91FF90FC
:10015000EF90DF90CF900895FC01538D448D252FB3
:1001600030E0842F90E0821B930B541710F0CF9651
:10017000089501970895FC01918D828D981761F083
:10018000828DDF01A80FB11D5D968C91928D9F5FCE
:100190009F73928F90E008958FEF9FEF0895FC0179
:1001A000918D828D981731F0828DE80FF11D858D2C
:1001B00090E008958FEF9FEF0895FC01918D228DBF
:1001C000892F90E0805C9F4F821B91098F73992744
:1001D00008958EEF92E00E94DD0021E0892B09F462
:1001E00020E0822F0895FC01848DDF01A80FB11D4E
:1001F000A35ABF4F2C91848D90E001968F7399275D
:10020000848FA689B7892C93A089B1898C9183703A
:1002100080648C93938D848D981306C00288F38933
:10022000E02D80818F7D80830895EF92FF920F9360
:100230001F93CF93DF93EC0181E0888F9B8D8C8D92
:10024000981305C0E889F989808185FD26C0F62EBE
:100250000B8D10E00F5F1F4F0F731127E02E8C8D59
:10026000E8120CC00FB607FCFACFE889F989808143
:1002700085FFF5CFCE010E94F300F1CF8B8DFE01FB
:10028000E80FF11DE35AFF4FF0829FB7F8940B8FF0
:10029000EA89FB89808180620AC09FB7F894EE8961
:1002A000FF896083E889F989808183708064808315
:1002B0009FBF81E090E0DF91CF911F910F91FF9060
:1002C000EF900895CF93DF93EC01888D8823C9F0D8
:1002D000EA89FB89808185FD05C0A889B9898C914F
:1002E00086FD0FC00FB607FCF5CF808185FFF2CFEA
:1002F000A889B9898C9185FFEDCFCE010E94F300CA
:10030000E7CFDF91CF91089580E090E0892B29F02D
:100310000E94E90081110C940000089585ED8093FE
:10032000BC008091BC0084FDFCCF1092A502089512
:1003300040915802262F30E0240F311D2132310523
:10034000DCF42091A5022430C9F4FC0180E090E0A7
:10035000861758F4309158022191DC01A85CBD4FFA
:10036000A30FB11D2C930196F3CF80915802680F13
:100370006093580280E0089581E0089582E0089536
:100380000895CF93DF93AC01E091AA02F091AB0204
:100390003097F1F09091A9028091A8029817C0F0CF
:1003A00090E0292F30E02617370754F4D901A85ED2
:1003B000BD4FEA01C20FD31F28812C939F5FF1CF5D
:1003C0001092A9026093A802CB01DF91CF9109940A
:1003D000DF91CF9108950895E091A9028091A8023C
:1003E000E81730F4F0E0E85EFD4F808190E008957A
:1003F0008FEF9FEF08959091A9028091A80298171E
:1004000050F4E92FF0E0E85EFD4F208130E09F5F7F
:100410009093A90202C02FEF3FEFC9010895809188
:10042000A80290E02091A902821B91090895CF9320
:10043000DF93CB01EA01642F0E949801CE01DF9186
:10044000CF910895CF93DF931F92CDB7DEB7698325
:1004500061E0CE0101960E94980181E090E00F904A
:10046000DF91CF910895089580E090E008950F9373
:100470001F93CF93DF93209117022F5F322F377096
:100480003093170220FF02C020E801C020E031FDB8
:100490002064347009F02062205FFC01EC01239697
:1004A00000E011E06485662331F070E0C8010E942D
:1004B000DE0E6F5F01C060E06187322F369F030E52
:1004C00030E0311D1124311102C0168202C03150BA
:1004D0003683662311F0615061873196CE17DF07AE
:1004E00009F7DF91CF911F910F91089580E991E075
:1004F0000895219A0895209A08950F931F93CF93FA
:10050000DF93CDB7DEB762970FB6F894DEBF0FBEAC
:10051000CDBF8C01F901DC011C968C917A83698333
:100520005C834B835E834D8390819D8791819E8701
:1005300092819F87813029F4CE0101960E94370273
:1005400006C01C861B861A86198618861F8283E0C1
:10055000888B1A8A198AD801ED91FC910484F5855B
:10056000E02DBE016F5F7F4FC801099562960FB6FF
:10057000F894DEBF0FBECDBFDF91CF911F910F91D9
:1005800008950F931F93CF93DF93CDB7DEB7629794
:100590000FB6F894DEBF0FBECDBF8C01F901DC01B0
:1005A0001C968C917A8369835C834B835E834D8335
:1005B00090819D8791819E8792819F87813029F4C8
:1005C000CE0101960E94370206C01C861B861A8641
:1005D000198618861F82188A1A8A198AD801ED91FD
:1005E000FC910484F585E02DBE016F5F7F4FC8014B
:1005F000099562960FB6F894DEBF0FBECDBFDF91AE
:10060000CF911F910F910895CF93DF9300D000D029
:1006100000D0CDB7DEB7AB011C821D821E82DC018B
:10062000ED91FC910190F081E02D19821A821B82DC
:100630009E012F5F3F4FBE016C5F7F4F099526964D
:100640000FB6F894DEBF0FBECDBFDF91CF910895F6
:10065000FC0185859685089580E090E008954F928D
:100660005F926F927F928F92AF92BF92CF92DF9202
:10067000EF92FF920F931F93CF93DF933C01EB0117
:100680000E94FD09F30127853089621B730B6A30D4
:100690007105B0F3F894E881F98175B1716065B1C5
:1006A0006E7F65B9CA848F812C2D281B822F2F83E2
:1006B000BF844A805B801D850C85DE841F5F0F5FD1
:1006C000D3949E813885A984EB844181D20120E0B6
:1006D000C32F522F322F3181442788943111380F84
:1006E00008F43FEF8195889410FD430F4795889457
:1006F00011FD430F4795889412FD430F4795889449
:1007000013FD430F4795889414FD430F4795889434
:1007100015FD430F4795889416FD430F4795889420
:1007200017FD430F47958894232F1111242F8C0D0B
:10073000422F002C75B947FF65B930812227889474
:1007400065B93111390F75B946FF65B908F43FEF46
:100750009195889465B900FD230F75B945FF65B97A
:100760002795889401FD230F65B92795889475B95D
:1007700044FF65B902FD230F2795889465B903FDF1
:10078000230F75B943FF65B92795889404FD230F9E
:1007900065B92795889475B942FF65B905FD230FA2
:1007A0002795889465B906FD230F75B941FF65B992
:1007B0002795889407FD230F65B92795889475B907
:1007C00040FF65B9432F0111422F9A0D65B900C052
:1007D00075B947FF65B932812227889465B931110F
:1007E0003C0F75B946FF65B908F43FEFEB0DF11DFD
:1007F00065B9D0FC230F75B945FF65B92795889475
:10080000D1FC230F65B92795889475B944FF65B964
:10081000D2FC230F2795889465B9D3FC230F75B9B3
:1008200043FF65B927958894D4FC230F65B92795B4
:10083000889475B942FF65B9D5FC230F2795889434
:1008400065B9D6FC230F75B941FF65B92795889422
:10085000D7FC230F65B92795889475B940FF65B912
:10086000432FD110422FC19565B9CE0D002C75B91B
:1008700047FF65B931812227889465B93111380F56
:1008800075B946FF65B908F43FEF8195889465B95D
:1008900010FD230F75B945FF65B92795889411FDA3
:1008A000230F65B92795889475B944FF65B912FD82
:1008B000230F2795889465B913FD230F75B943FF5E
:1008C00065B92795889414FD230F65B927958894F9
:1008D00075B942FF65B915FD230F2795889465B951
:1008E00016FD230F75B941FF65B92795889417FD4B
:1008F000230F65B92795889475B940FF65B9432FD3
:100900001111422F8C0D65B9119709F013CF20EF0B
:1009100030E0D2010E94140FDC01CB01F3E0B69568
:10092000A79597958795FA95D1F720E030E0690172
:10093000EAE94E9E040CC11C5E9EC00CD11C112421
:10094000C50CD11CE12CF12CCC0CDD1CEE1CFF1CC9
:100950008C0D9D1DAE1DBF1D893E43E09407A10572
:10096000B10508F434C0885E9340A109B10942E0A2
:10097000B695A795979587954A95D1F747E0849FB7
:10098000080E211D949F200D311D1124290F311DAA
:100990006091160270E0860F971F820F931F40919F
:1009A000F8025091F9026091FA027091FB02292F2E
:1009B0003327420F531F611D711D4093F80250935E
:1009C000F9026093FA027093FB0280931602789406
:1009D0000E94FD09F301708B6787DF91CF911F9112
:1009E0000F91FF90EF90DF90CF90BF90AF908F90DE
:1009F0007F906F905F904F9008954F925F926F92AB
:100A00007F928F92AF92BF92CF92DF92EF92FF923E
:100A10000F931F93CF93DF933C01EB010E94FD09DD
:100A2000F30127853089621B730B6A307105B0F3BF
:100A3000F894E881F98175B1726065B16D7F65B92F
:100A4000CA848F812C2D281B822F2F83BF844A803C
:100A50005B801D850C85DE841F5F0F5FD3949E81B4
:100A60003885A984EB844181D20120E0C32F522F25
:100A7000322F3181442788943111380F08F43FEF29
:100A80008195889410FD430F4795889411FD430F7D
:100A90004795889412FD430F4795889413FD430FA3
:100AA0004795889414FD430F4795889415FD430F8F
:100AB0004795889416FD430F4795889417FD430F7B
:100AC00047958894232F1111242F8C0D422F002C31
:100AD00075B947FF65B930812227889465B931110E
:100AE000390F75B946FF65B908F43FEF91958894C1
:100AF00065B900FD230F75B945FF65B92795889441
:100B000001FD230F65B92795889475B944FF65B930
:100B100002FD230F2795889465B903FD230F75B94E
:100B200043FF65B92795889404FD230F65B9279580
:100B3000889475B942FF65B905FD230F2795889400
:100B400065B906FD230F75B941FF65B927958894EE
:100B500007FD230F65B92795889475B940FF65B9DE
:100B6000432F0111422F9A0D65B900C075B947FF97
:100B700065B932812227889465B931113C0F75B966
:100B800046FF65B908F43FEFEB0DF11D65B9D0FCE8
:100B9000230F75B945FF65B927958894D1FC230FBC
:100BA00065B92795889475B944FF65B9D2FC230FC0
:100BB0002795889465B9D3FC230F75B943FF65B9B0
:100BC00027958894D4FC230F65B92795889475B927
:100BD00042FF65B9D5FC230F2795889465B9D6FCEB
:100BE000230F75B941FF65B927958894D7FC230F6A
:100BF00065B92795889475B940FF65B9432FD11021
:100C0000422FC19565B9CE0D002C75B947FF65B966
:100C100031812227889465B93111380F75B946FFA3
:100C200065B908F43FEF8195889465B910FD230FED
:100C300075B945FF65B92795889411FD230F65B9EE
:100C40002795889475B944FF65B912FD230F279540
:100C5000889465B913FD230F75B943FF65B92795CE
:100C6000889414FD230F65B92795889475B942FFC0
:100C700065B915FD230F2795889465B916FD230FD7
:100C800075B941FF65B92795889417FD230F65B99C
:100C90002795889475B940FF65B9432F1111422FEC
:100CA0008C0D65B9119709F013CF20EF30E0D20118
:100CB0000E94140FDC01CB01F3E0B695A795979540
:100CC0008795FA95D1F720E030E06901EAE94E9E78
:100CD000040CC11C5E9EC00CD11C1124C50CD11C7F
:100CE000E12CF12CCC0CDD1CEE1CFF1C8C0D9D1D91
:100CF000AE1DBF1D893E43E09407A105B10508F470
:100D000034C0885E9340A109B10942E0B695A79529
:100D1000979587954A95D1F747E0849F080E211D46
:100D2000949F200D311D1124290F311D6091160251
:100D300070E0860F971F820F931F4091F802509129
:100D4000F9026091FA027091FB02292F3327420FBA
:100D5000531F611D711D4093F8025093F902609377
:100D6000FA027093FB028093160278940E94FD09A8
:100D7000F301708B6787DF91CF911F910F91FF90E7
:100D8000EF90DF90CF90BF90AF908F907F906F905B
:100D90005F904F90089581E08093AF029091A802F8
:100DA0008091A902981709F444C08BE993E00E944E
:100DB000FB019C01207E33272038310541F13CF4B2
:100DC0002034310581F020363105B9F0E7CF203CE1
:100DD000310539F1203E310549F1203A3105F1F66E
:100DE0008EE591E020C08F71992721E00F9709F0DF
:100DF00020E021952093AC02D1CF8F71992721E07B
:100E00000F9709F020E021952093AD02C7CF8F7195
:100E1000992721E00F9709F020E021952093AE0259
:100E2000BDCF85E691E00E946C09B8CF8EE691E0D7
:100E3000FACF0895EF92FF920F931F93CF93DF9312
:100E4000EC01198218821B821A821D821C82611594
:100E5000710549F18B01FB0101900020E9F7319701
:100E60007F01E61AF70AB7010E940F09288139812C
:100E700081110DC02115310519F0C9010E94CD0F56
:100E8000198218821D821C821B821A820CC0FD826C
:100E9000EC82B801C901DF91CF911F910F91FF90B2
:100EA000EF900C942A11DF91CF911F910F91FF9039
:100EB000EF9008951F920F920FB60F9211242F9367
:100EC0003F934F935F936F937F938F939F93AF93D2
:100ED000BF93EF93FF938EEF92E00E94F300FF9198
:100EE000EF91BF91AF919F918F917F916F915F91A2
:100EF0004F913F912F910F900FBE0F901F9018951B
:100F00001F920F920FB60F9211242F938F939F93DE
:100F1000EF93FF93E0910E03F0910F038081E09136
:100F20001403F091150382FD12C090818091170384
:100F30008F5F8F7320911803821751F0E091170390
:100F4000F0E0E250FD4F958F8093170301C0808140
:100F5000FF91EF919F918F912F910F900FBE0F9066
:100F60001F9018951F920F920FB60F9211242F9376
:100F70003F934F935F936F937F938F939F93AF9321
:100F8000BF93EF93FF938091B900887F803609F477
:100F90009CC068F5883209F45BC090F4803109F494
:100FA00054C038F4882309F4F6C0883009F44DC0E1
:100FB000F6C0883109F44CC0803209F45DC0EFC03E
:100FC000803409F468C048F4803309F455C088338C
:100FD00009F0E5C080937B02D8C0803509F44FC08A
:100FE000883509F45DC0883409F0D9C0D6C0883985
:100FF00009F4C7C0A8F4883709F467C038F4883604
:1010000009F463C0803709F460C0C9C0883809F4A6
:10101000B8C0803909F45FC0803809F0C0C05BC037
:10102000803B09F486C038F4803A09F466C0883AF7
:1010300009F47FC0B4C0803C09F4A7C0883C09F41F
:10104000A4C0883B09F48AC0AAC080919E0210C047
:1010500090919D0280919C02981770F5E0919D02FD
:1010600081E08E0F80939D02F0E0E458FD4F808177
:101070008093BB0085EC86C080937B028EC0E0919C
:101080009D0281E08E0F80939D028091BB00F0E075
:10109000E458FD4F808390919D0280919C026EC028
:1010A000E0919D0281E08E0F80939D028091BB00B4
:1010B000F0E0E458FD4F80838091A40281116DC05F
:1010C00081E08093A30284EA61C083E08093A5025B
:1010D00010927A02CFCF80917A02803208F051C00C
:1010E000E0917A0281E08E0F80937A028091BB00BA
:1010F000F0E0E65AFD4F8083BDCF85EC8093BC00C5
:101100001092A50280917A02803230F4E0917A0246
:10111000F0E0E65AFD4F108260917A0270E0E091B3
:101120009F02F091A0028AE592E0099510927A025E
:1011300036C084E08093A5021092590210925802A2
:10114000E091A102F091A2020995809158028111CB
:1011500005C081E08093580210923802E091590254
:1011600081E08E0F80935902F0E0E85CFD4F8081B2
:101170008093BB009091590280915802981708F40F
:1011800079CF85E88093BC000AC085EC8093BC00D1
:101190001092A50204C010927B020E948E01FF9162
:1011A000EF91BF91AF919F918F917F916F915F91DF
:1011B0004F913F912F910F900FBE0F901F90189558
:1011C000FC018AE091E091838083138212828FEF89
:1011D00086838783808781878287838781E084876E
:1011E00016861586158214828091FC029091FD026C
:1011F000892B21F4F093FD02E093FC02A0911402EC
:10120000B0911502109721F01596FC93EE93149768
:10121000F0931502E093140208950E941C110F939D
:101220001F93CF93DF93EC0188819981009729F078
:101230002A813B812617370788F48B016F5F7F4F28
:101240000E945610009761F0998388831B830A835C
:101250002C813D81232B11F4FC01108281E001C01F
:1012600080E0DF91CF911F910F910895EF92FF924F
:101270000F931F93CF93DF936115710511F480E0F5
:101280001CC041155105C1F07B01EC018C819D8191
:101290008A01080F191FB801CE010E940F09882387
:1012A00071F3288139818C819D81B701820F931F51
:1012B0000E942A111D830C8381E0DF91CF911F9141
:1012C0000F91FF90EF90089542E050E060E172E0EE
:1012D0008EEF92E00C948200CF93DF93009779F029
:1012E000FC0101900020E9F73197AF01481B590B31
:1012F000BC018EEF92E00E948200EC0102C0C0E0CF
:10130000D0E00E9464098C0F9D1FDF91CF9108955A
:10131000CF93DF93FC0144815581608171818EEF11
:1013200092E00E948200EC010E9464098C0F9D1FD4
:10133000DF91CF910895CF93DF93EC01FB014481BE
:101340005581608171810E94360981110CC08881AC
:101350009981009711F00E94CD0F198218821D8289
:101360001C821B821A82CE01DF91CF91089590E0FA
:10137000FC01E656FF4F2491FC01EA57FF4F3491E0
:10138000FC01EE58FF4FE491EE23B1F1222339F135
:10139000233091F038F42130A9F0223001F584B5E2
:1013A0008F7D12C0273091F02830A1F02430B9F49D
:1013B000809180008F7D03C0809180008F77809323
:1013C00080000DC084B58F7784BD09C08091B000C6
:1013D0008F7703C08091B0008F7D8093B000F0E0E4
:1013E000EE0FFF1FE859FF4FA591B4918FB7F89406
:1013F000EC91E32BEC938FBF08953FB7F894809165
:10140000B5039091B603A091B703B091B80326B588
:10141000A89B05C02F3F19F00196A11DB11D3FBF2C
:10142000BA2FA92F982F8827820F911DA11DB11DBA
:10143000BC01CD0143E0660F771F881F991F4A95B5
:10144000D1F708952FB7F8946091F8027091F902DE
:101450008091FA029091FB022FBF08953F924F9224
:101460005F926F927F928F929F92AF92BF92CF9234
:10147000DF92EF92FF920F931F93CF93DF9300D0F1
:101480001F92CDB7DEB7F82E8091AA039091AB03DF
:10149000A091AC03B091AD03892B8A2B8B2BE9F083
:1014A0000E94FD090091BF031091C0032091C10368
:1014B0003091C203DC01CB01801B910BA20BB30B5B
:1014C0000091AA031091AB032091AC033091AD03BE
:1014D00080179107A207B307B8F20E94FD09609335
:1014E000BF037093C0038093C1039093C203E09144
:1014F000B203F091B303309759F04091AE0350918D
:10150000AF036091B0037091B1038F2D0995F82E50
:101510000091FC021091FD024F2C512C612C712C7A
:101520000115110509F45FC0D8011C96EC901C97B9
:101530008091A8039091A9038436910510F41C961C
:101540001C92D801ED91FC91A280B38019821A827D
:101550001B82F11014C0F8014585568562817381A4
:101560009E012F5F3F4FC801F5010995D8011C96D8
:10157000EC921C9714960D911C911597D1CFF80100
:101580003696CE0101966C01480199E0890E911CB6
:101590002191222309F132803320F1F0822F90E053
:1015A000A0E0B0E09C01AD012F5F3F4F4F4F5F4F78
:1015B000C301B2010E94CE0E9B01AC01832D90E0CD
:1015C000A0E0B0E0BC01CD016F5F7F4F8F4F9F4F18
:1015D0000E94CE0ED6018C93BFEFCB1ADB0AE81522
:1015E000F905B1F6B8CF8091BD039091BE038C018F
:1015F0000F5F1F4F1093BE030093BD0349979CF1EB
:101600000E94220A4B015C0188EE93E0089FB00122
:10161000099F700D189F700D1124072E000C880B68
:10162000990BC090B903D090BA03E090BB03F0903F
:10163000BC03A50194012C193D094E095F090E94C4
:10164000F20E3093A9032093A8031092BE031092C8
:10165000BD030E94220A6093B9037093BA0380937A
:10166000BB039093BC030F900F900F90DF91CF912D
:101670001F910F91FF90EF90DF90CF90BF90AF90B0
:101680009F908F907F906F905F904F903F900895C4
:101690001F920F920FB60F9211242F933F938F93A7
:1016A0009F93AF93BF938091F8029091F902A0911C
:1016B000FA02B091FB023091B40326E0230F2D37DC
:1016C00020F40296A11DB11D05C029E8230F039641
:1016D000A11DB11D2093B4038093F8029093F902E9
:1016E000A093FA02B093FB028091B5039091B603E8
:1016F000A091B703B091B8030196A11DB11D8093CD
:10170000B5039093B603A093B703B093B803BF910A
:10171000AF919F918F913F912F910F900FBE0F909E
:101720001F901895CF93DF93CDB7DEB768970FB6AC
:10173000F894DEBF0FBECDBF789484B5826084BDBF
:1017400084B5816084BD85B5826085BD85B58160C5
:1017500085BD80916E00816080936E001092810043
:1017600080918100826080938100809181008160FE
:1017700080938100809180008160809380008091BF
:10178000B10084608093B1008091B000816080934B
:10179000B00080917A00846080937A0080917A0012
:1017A000826080937A0080917A008E7F80937A00A5
:1017B00080917A00806880937A001092C100109224
:1017C000A9021092A8021092A7021092A6021092EB
:1017D000A50211E01093A4021092A30282E10E94DC
:1017E000B70983E10E94B7098091B9008E7F809389
:1017F000B9008091B9008D7F8093B90080E2809319
:10180000B80085E48093BC0080EC91E09093A20244
:101810008093A10281EC91E09093A00280939F02BB
:1018200080E78093BA008BEC96E09093AB028093B4
:10183000AA02E0910E03F0910F0382E08083E09111
:101840000A03F0910B031082E0910C03F0910D0359
:1018500080E1808310921603E0911203F09113034C
:1018600086E08083E0911003F09111038081806114
:101870008083E0911003F091110380818860808360
:10188000E0911003F0911103808180688083E091E2
:101890001003F091110380818F7D808362E771E0F6
:1018A000CE0143960E941A0741E050E06FE871E0D4
:1018B000CE0143960E94360946E050E061E971E0AE
:1018C000CE0143960E94360961E971E0CE010D9682
:1018D0000E941A0768E971E0CE0107960E941A0774
:1018E00081EB91E00E946C0963EE71E0CE010196FC
:1018F0000E941A07BE01695F7F4FCE0101960E94C8
:101900009B090E94880989819A810E94CD0F61EF0D
:1019100071E0CE0101960E941A07BE016D5E7F4FF5
:10192000CE0101960E949B090E94880989819A81B3
:101930000E94CD0F68EF71E0CE0101960E941A0758
:10194000BE01635F7F4FCE0101960E949B090E94FA
:10195000880989819A810E94CD0F82E092E00E94DD
:101960006C0981EB91E00E946C098F8198850E943F
:10197000CD0F8D859E850E94CD0F8B899C890E94FD
:10198000CD0F8091C102811110C080EB92E00E94C6
:10199000E0081092C0021092BF028AE191E0909399
:1019A000B1028093B0021093C10280EB92E00E94DA
:1019B000790282EE92E09093B3028093B20283E0C8
:1019C00090E09093BE028093BD028091AA03909113
:1019D000AB03A091AC03B091AD03843C29E0920726
:1019E000A105B10520F484EC99E0A0E0B0E080937B
:1019F000AA039093AB03A093AC03B093AD03809183
:101A0000DA02811111C089EC92E00E94E008109284
:101A1000D9021092D8028CE291E09093CA0280938E
:101A2000C90281E08093DA0289EC92E00E947B0295
:101A30008BEE92E09093CC028093CB0283E090E017
:101A40009093D7028093D6028091AA039091AB0322
:101A5000A091AC03B091AD03843CE9E09E07A105E1
:101A6000B10520F484EC99E0A0E0B0E08093AA03F3
:101A70009093AB03A093AC03B093AD0302EE12E0DE
:101A80009BEEC92E92E0D92E2BEE222E22E0322E92
:101A90005601780130E8732ED7011C9211967C9282
:101AA000119712961C92F501108271821282809118
:101AB000A7030E942E0AF3E0EF0EF11C23E0A20E12
:101AC000B11C2E143F0441F70E94FD094B015C013B
:101AD00084E6482E512C612C712C0E94FD09DC01FA
:101AE000CB0188199909AA09BB09883E9340A10531
:101AF000B10598F381E0481A510861087108A8EE11
:101B00008A0EA3E09A1EA11CB11C41145104610469
:101B1000710419F7D8011C9211961C921197129614
:101B20001C92F6011082118212828091A7030E94FA
:101B30002E0A0D5F1F4FF3E0CF0ED11C2016310689
:101B400049F783E0ECEAF2E0DF011D928A95E9F7BC
:101B50001092AF021092F4021092F5021092F60267
:101B60001092F7021FEF0E94220AC090F402D09058
:101B7000F502E090F602F090F702DC01CB018C193F
:101B80009D09AE09BF0980329340A105B10578F4E3
:101B90001093EB021092EC021092ED021093EE0201
:101BA0001092EF021092F0021093F10229C00E94ED
:101BB000220ADC01CB018C199D09AE09BF098032D4
:101BC0009340A105B10508F445C00E94220ADC013A
:101BD000CB018C199D09AE09BF0980349640A1053F
:101BE000B105C0F51092EB021092EC021092ED02DA
:101BF0001092EE021092EF021092F0021092F10297
:101C00001092F2021092F3028091AF02811107C08C
:101C10008091A7030E942E0A0E948401A4CF1092F3
:101C2000AF028091AE029091AD022091AC02209360
:101C3000E2029093E3028093E4022093E502909302
:101C4000E6028093E7022093E8029093E9028093F2
:101C5000EA02DECF0E94220A6093F4027093F5023A
:101C60008093F6029093F702CFCFEEEFF2E013826B
:101C7000128288EE93E0A0E0B0E084839583A6838F
:101C8000B7832EE331E03183208325EC30E03587C4
:101C9000248724EC30E03787268720EC30E0318B36
:101CA000208B21EC30E0338B228B22EC30E0358B23
:101CB000248B26EC30E0378B268B118E128E138E00
:101CC000148EEBE9F3E01382128284839583A6835A
:101CD000B78380E591E091838083E7EAF3E08FEFBB
:101CE000808312821182148613868FEF9FEFDC01AE
:101CF00087839087A187B28708950E94BF0EA59F12
:101D0000900DB49F900DA49F800D911D11240895F6
:101D10002F923F924F925F926F927F928F929F92FB
:101D2000AF92BF92CF92DF92EF92FF920F931F93E9
:101D3000CF93DF93CDB7DEB7CA1BDB0B0FB6F8949A
:101D4000DEBF0FBECDBF09942A88398848885F84DA
:101D50006E847D848C849B84AA84B984C884DF804B
:101D6000EE80FD800C811B81AA81B981CE0FD11D2F
:101D70000FB6F894DEBF0FBECDBFED010895A29F50
:101D8000B001B39FC001A39F700D811D1124911D4F
:101D9000B29F700D811D1124911D0895DB018F9359
:101DA0009F930E947D0EBF91AF91A29F800D911DC8
:101DB000A39F900DB29F900D1124089597FB072EBD
:101DC00016F4009407D077FD09D00E941B0F07FC82
:101DD00005D03EF4909581959F4F0895709561953B
:101DE0007F4F0895A1E21A2EAA1BBB1BFD010DC057
:101DF000AA1FBB1FEE1FFF1FA217B307E407F507BB
:101E000020F0A21BB30BE40BF50B661F771F881F96
:101E1000991F1A9469F760957095809590959B012C
:101E2000AC01BD01CF0108950E94BF0EB7FF089518
:101E3000821B930B0895AA1BBB1B51E107C0AA1F6D
:101E4000BB1FA617B70710F0A61BB70B881F991F5B
:101E50005A95A9F780959095BC01CD010895EE0F94
:101E6000FF1F0590F491E02D09940F931F93CF93DA
:101E7000DF938230910510F482E090E0E091C50399
:101E8000F091C60320E030E0A0E0B0E0309719F117
:101E9000408151810281138148175907C8F0841786
:101EA000950769F4109731F012960C9312971396D8
:101EB0001C9327C00093C5031093C60322C02115AD
:101EC000310519F04217530718F49A01BD01EF01CB
:101ED000DF01F801DBCF21153105F9F0281B390BA3
:101EE0002430310580F48A819B816115710521F0D0
:101EF000FB019383828304C09093C6038093C50340
:101F0000FE01329644C0FE01E20FF31F81939193CC
:101F100022503109398328833AC02091C30330917C
:101F2000C403232B41F4209102013091030130932B
:101F3000C4032093C30320910001309101012115B6
:101F4000310541F42DB73EB7409104015091050190
:101F5000241B350BE091C303F091C403E217F30790
:101F6000A0F42E1B3F0B2817390778F0AC014E5F09
:101F70005F4F2417350748F04E0F5F1F5093C4037F
:101F80004093C3038193919302C0E0E0F0E0CF015E
:101F9000DF91CF911F910F910895CF93DF93009719
:101FA00009F481C0FC01329713821282A091C5030B
:101FB000B091C603109781F420813181820F931F65
:101FC0002091C3033091C4032817390751F5F093CA
:101FD000C403E093C30367C0ED0120E030E0CE17F7
:101FE000DF0740F44A815B819E0141155105F1F004
:101FF000EA01F5CFD383C28340815181840F951FBD
:10200000C817D90759F488819981840F951F0296C2
:10201000918380838A819B819383828321153105FB
:1020200029F4F093C603E093C5033DC0E901FB83A7
:10203000EA8349915991C40FD51FEC17FD0761F44C
:1020400080819181840F951F0296E901998388838D
:10205000828193819B838A83E0E0F0E012968D91E8
:102060009C911397009719F0FD01DC01F7CF8D913A
:102070009C9111979D012E5F3F4F820F931F2091DE
:10208000C3033091C4032817390769F4309729F442
:102090001092C6031092C50302C013821282B0933D
:1020A000C403A093C303DF91CF910895A0E0B0E0F3
:1020B000ECE5F0E10C948C0EEC01009721F4CB01DF
:1020C0000E94350FB4C0FC01E60FF71F9C0122509F
:1020D0003109E217F30708F4A8C0D9010D911C914A
:1020E000119706171707B0F00530110508F49BC0CB
:1020F000C80104978617970708F495C00250110984
:10210000061B170B019311936D937C93CF010E94D3
:10211000CD0F89C05B01A01AB10A4C01800E911E3F
:10212000A091C503B091C603612C712CE12CF12C58
:10213000109709F446C08D919C911197A815B90587
:10214000B1F56C0142E0C40ED11CCA14DB0478F175
:102150004C018A189B08640142E0C40ED11C1296FF
:10216000BC9012971396AC91B5E0CB16D10440F019
:10217000B282A38391828082D9016D937C9309C03E
:102180000E5F1F4F800F911FF90191838083EB2D0C
:10219000FA2FE114F10431F0D7011396FC93EE937A
:1021A000129741C0F093C603E093C5033CC0681684
:1021B000790608F43C017D0112960D90BC91A02D8A
:1021C000B7CF8091C3039091C40388169906E1F4B8
:1021D00066167706C8F4809100019091010100977E
:1021E00041F48DB79EB74091040150910501841BC5
:1021F000950BE817F907C8F4F093C403E093C30301
:10220000F901718360830FC0CB010E94350F7C01FF
:10221000009759F0A801BE010E942111CE010E9431
:10222000CD0FC70104C0CE0102C080E090E0CDB761
:10223000DEB7EEE00C94A80E81E090E0F8940C94E8
:102240003111FB01DC0102C001900D924150504060
:10225000D8F70895FB01DC0101900D920020E1F711
:062260000895F894FFCF81
:102266000000C7032000000000000D090D090D093C
:10227600040328032C0300000000C1027D0279023A
:10228600040328037602FD0400000000C1027D025B
:102296007B020403280376022F03000000001501C9
:1022A6008200AC006201DD00BB00CF000000000030
:1022B600220217023402EB010F02FB01EC015570FA
:1022C6007761726400446F776E7761726400446967
:1022D6006D0041504D5F45585445524E414C5F4C40
:1022E60045445F434F4D5F41726475696E6F005F91
:1022F6000056312E302E31004172647570696C6F54
:10230600742045787465726E616C204C4544732068
:10231600002A2A2A2A2A2A2A2A2A2A2A2A2A2A2A41
:102326002A2A2A2A2A2A2A2A2A2A2A2A2A2A2A2A07
:102336002A2A2A2A2A2A2A2A2A2A2A2A2A2A2A2AF7
:102346002A2A004465736372697074696F6E3A2055
:10235600004E616D653A200056657273696F6E3A7C
:102366002000417574686F723A206E696E6A61006A
:042376000D0A00004C
:00000001FF
